{
  "contractName": "FarmOne",
  "abi": [
    {
      "inputs": [
        {
          "internalType": "contract SolidTokenOne",
          "name": "_solidTokenOne",
          "type": "address"
        },
        {
          "internalType": "contract RewardToken",
          "name": "_rewardToken",
          "type": "address"
        }
      ],
      "stateMutability": "nonpayable",
      "type": "constructor"
    },
    {
      "inputs": [],
      "name": "blockPerDay",
      "outputs": [
        {
          "internalType": "uint256",
          "name": "",
          "type": "uint256"
        }
      ],
      "stateMutability": "view",
      "type": "function"
    },
    {
      "inputs": [
        {
          "internalType": "address",
          "name": "",
          "type": "address"
        }
      ],
      "name": "hasStaked",
      "outputs": [
        {
          "internalType": "bool",
          "name": "",
          "type": "bool"
        }
      ],
      "stateMutability": "view",
      "type": "function"
    },
    {
      "inputs": [
        {
          "internalType": "address",
          "name": "",
          "type": "address"
        }
      ],
      "name": "isStaking",
      "outputs": [
        {
          "internalType": "bool",
          "name": "",
          "type": "bool"
        }
      ],
      "stateMutability": "view",
      "type": "function"
    },
    {
      "inputs": [],
      "name": "name",
      "outputs": [
        {
          "internalType": "string",
          "name": "",
          "type": "string"
        }
      ],
      "stateMutability": "view",
      "type": "function"
    },
    {
      "inputs": [],
      "name": "owner",
      "outputs": [
        {
          "internalType": "address",
          "name": "",
          "type": "address"
        }
      ],
      "stateMutability": "view",
      "type": "function"
    },
    {
      "inputs": [],
      "name": "rewardPerBlock",
      "outputs": [
        {
          "internalType": "uint256",
          "name": "",
          "type": "uint256"
        }
      ],
      "stateMutability": "view",
      "type": "function"
    },
    {
      "inputs": [
        {
          "internalType": "address",
          "name": "",
          "type": "address"
        }
      ],
      "name": "stakeDate",
      "outputs": [
        {
          "internalType": "uint256",
          "name": "",
          "type": "uint256"
        }
      ],
      "stateMutability": "view",
      "type": "function"
    },
    {
      "inputs": [
        {
          "internalType": "uint256",
          "name": "",
          "type": "uint256"
        }
      ],
      "name": "stakers",
      "outputs": [
        {
          "internalType": "address",
          "name": "",
          "type": "address"
        }
      ],
      "stateMutability": "view",
      "type": "function"
    },
    {
      "inputs": [
        {
          "internalType": "address",
          "name": "",
          "type": "address"
        }
      ],
      "name": "stakingBalance",
      "outputs": [
        {
          "internalType": "uint256",
          "name": "",
          "type": "uint256"
        }
      ],
      "stateMutability": "view",
      "type": "function"
    },
    {
      "inputs": [],
      "name": "totalPool",
      "outputs": [
        {
          "internalType": "uint256",
          "name": "",
          "type": "uint256"
        }
      ],
      "stateMutability": "view",
      "type": "function"
    },
    {
      "inputs": [],
      "name": "totalRewardAllocated",
      "outputs": [
        {
          "internalType": "uint256",
          "name": "",
          "type": "uint256"
        }
      ],
      "stateMutability": "view",
      "type": "function"
    },
    {
      "inputs": [
        {
          "internalType": "uint256",
          "name": "_amount",
          "type": "uint256"
        }
      ],
      "name": "stake",
      "outputs": [],
      "stateMutability": "nonpayable",
      "type": "function"
    },
    {
      "inputs": [],
      "name": "unstake",
      "outputs": [],
      "stateMutability": "nonpayable",
      "type": "function"
    },
    {
      "inputs": [],
      "name": "issueReward",
      "outputs": [],
      "stateMutability": "nonpayable",
      "type": "function"
    },
    {
      "inputs": [
        {
          "internalType": "address",
          "name": "_stakerAddress",
          "type": "address"
        }
      ],
      "name": "calculateReward",
      "outputs": [
        {
          "internalType": "uint256",
          "name": "",
          "type": "uint256"
        }
      ],
      "stateMutability": "view",
      "type": "function"
    },
    {
      "inputs": [
        {
          "internalType": "address",
          "name": "_stakerAddress",
          "type": "address"
        }
      ],
      "name": "stakeDuration",
      "outputs": [
        {
          "internalType": "uint256",
          "name": "",
          "type": "uint256"
        }
      ],
      "stateMutability": "view",
      "type": "function"
    }
  ],
  "bytecode": "0x60806040526040518060400160405280600881526020017f4661726d204f6e65000000000000000000000000000000000000000000000000815250600c90805190602001906200005192919062000168565b503480156200005f57600080fd5b506040516200181438038062001814833981810160405281019062000085919062000246565b33600460006101000a81548173ffffffffffffffffffffffffffffffffffffffff021916908373ffffffffffffffffffffffffffffffffffffffff16021790555060016000819055506802b5e3af16b188000060018190555081600a60006101000a81548173ffffffffffffffffffffffffffffffffffffffff021916908373ffffffffffffffffffffffffffffffffffffffff16021790555080600b60006101000a81548173ffffffffffffffffffffffffffffffffffffffff021916908373ffffffffffffffffffffffffffffffffffffffff16021790555050506200037c565b8280546200017690620002e3565b90600052602060002090601f0160209004810192826200019a5760008555620001e6565b82601f10620001b557805160ff1916838001178555620001e6565b82800160010185558215620001e6579182015b82811115620001e5578251825591602001919060010190620001c8565b5b509050620001f59190620001f9565b5090565b5b8082111562000214576000816000905550600101620001fa565b5090565b600081519050620002298162000348565b92915050565b600081519050620002408162000362565b92915050565b600080604083850312156200025a57600080fd5b60006200026a858286016200022f565b92505060206200027d8582860162000218565b9150509250929050565b60006200029482620002c3565b9050919050565b6000620002a88262000287565b9050919050565b6000620002bc8262000287565b9050919050565b600073ffffffffffffffffffffffffffffffffffffffff82169050919050565b60006002820490506001821680620002fc57607f821691505b6020821081141562000313576200031262000319565b5b50919050565b7f4e487b7100000000000000000000000000000000000000000000000000000000600052602260045260246000fd5b62000353816200029b565b81146200035f57600080fd5b50565b6200036d81620002af565b81146200037957600080fd5b50565b611488806200038c6000396000f3fe608060405234801561001057600080fd5b50600436106101005760003560e01c8063a694fc3a11610097578063ecfb49a311610066578063ecfb49a3146102b1578063f17125dd146102cf578063f483f33b146102ff578063fd5e6dd11461030957610100565b8063a694fc3a14610217578063c93c8f3414610233578063d82e396214610263578063e49352fe1461029357610100565b80635190bbaf116100d35780635190bbaf1461017b5780636f49712b146101ab5780638ae39cac146101db5780638da5cb5b146101f957610100565b806306fdde03146101055780632def66201461012357806345a3669a1461012d57806345bc78ab1461014b575b600080fd5b61010d610339565b60405161011a91906110ab565b60405180910390f35b61012b6103c7565b005b6101356105b7565b604051610142919061112d565b60405180910390f35b61016560048036038101906101609190610e74565b6105bd565b604051610172919061112d565b60405180910390f35b61019560048036038101906101909190610e74565b6105d5565b6040516101a2919061112d565b60405180910390f35b6101c560048036038101906101c09190610e74565b6105ed565b6040516101d29190611090565b60405180910390f35b6101e361060d565b6040516101f0919061112d565b60405180910390f35b610201610613565b60405161020e9190611015565b60405180910390f35b610231600480360381019061022c9190610ec6565b610639565b005b61024d60048036038101906102489190610e74565b610949565b60405161025a9190611090565b60405180910390f35b61027d60048036038101906102789190610e74565b610969565b60405161028a919061112d565b60405180910390f35b61029b6109f1565b6040516102a8919061112d565b60405180910390f35b6102b96109f7565b6040516102c6919061112d565b60405180910390f35b6102e960048036038101906102e49190610e74565b6109fd565b6040516102f6919061112d565b60405180910390f35b610307610a6b565b005b610323600480360381019061031e9190610ec6565b610df6565b6040516103309190611015565b60405180910390f35b600c8054610346906112f4565b80601f0160208091040260200160405190810160405280929190818152602001828054610372906112f4565b80156103bf5780601f10610394576101008083540402835291602001916103bf565b820191906000526020600020905b8154815290600101906020018083116103a257829003601f168201915b505050505081565b6000600760003373ffffffffffffffffffffffffffffffffffffffff1673ffffffffffffffffffffffffffffffffffffffff1681526020019081526020016000205490506000811161044e576040517f08c379a0000000000000000000000000000000000000000000000000000000008152600401610445906110ed565b60405180910390fd5b600a60009054906101000a900473ffffffffffffffffffffffffffffffffffffffff1673ffffffffffffffffffffffffffffffffffffffff1663a9059cbb33836040518363ffffffff1660e01b81526004016104ab929190611067565b602060405180830381600087803b1580156104c557600080fd5b505af11580156104d9573d6000803e3d6000fd5b505050506040513d601f19601f820116820180604052508101906104fd9190610e9d565b506000600760003373ffffffffffffffffffffffffffffffffffffffff1673ffffffffffffffffffffffffffffffffffffffff1681526020019081526020016000208190555080600260008282546105559190611245565b925050819055506000600960003373ffffffffffffffffffffffffffffffffffffffff1673ffffffffffffffffffffffffffffffffffffffff16815260200190815260200160002060006101000a81548160ff02191690831515021790555050565b60035481565b60076020528060005260406000206000915090505481565b60066020528060005260406000206000915090505481565b60096020528060005260406000206000915054906101000a900460ff1681565b60015481565b600460009054906101000a900473ffffffffffffffffffffffffffffffffffffffff1681565b6000811161067c576040517f08c379a0000000000000000000000000000000000000000000000000000000008152600401610673906110cd565b60405180910390fd5b600a60009054906101000a900473ffffffffffffffffffffffffffffffffffffffff1673ffffffffffffffffffffffffffffffffffffffff166323b872dd3330846040518463ffffffff1660e01b81526004016106db93929190611030565b602060405180830381600087803b1580156106f557600080fd5b505af1158015610709573d6000803e3d6000fd5b505050506040513d601f19601f8201168201806040525081019061072d9190610e9d565b5080600760003373ffffffffffffffffffffffffffffffffffffffff1673ffffffffffffffffffffffffffffffffffffffff168152602001908152602001600020600082825461077d9190611164565b9250508190555080600260008282546107969190611164565b92505081905550600860003373ffffffffffffffffffffffffffffffffffffffff1673ffffffffffffffffffffffffffffffffffffffff16815260200190815260200160002060009054906101000a900460ff16610852576005339080600181540180825580915050600190039060005260206000200160009091909190916101000a81548173ffffffffffffffffffffffffffffffffffffffff021916908373ffffffffffffffffffffffffffffffffffffffff1602179055505b6001600860003373ffffffffffffffffffffffffffffffffffffffff1673ffffffffffffffffffffffffffffffffffffffff16815260200190815260200160002060006101000a81548160ff0219169083151502179055506001600960003373ffffffffffffffffffffffffffffffffffffffff1673ffffffffffffffffffffffffffffffffffffffff16815260200190815260200160002060006101000a81548160ff02191690831515021790555042600660003373ffffffffffffffffffffffffffffffffffffffff1673ffffffffffffffffffffffffffffffffffffffff1681526020019081526020016000208190555050565b60086020528060005260406000206000915054906101000a900460ff1681565b60008060025460005460015461097e866109fd565b600760008873ffffffffffffffffffffffffffffffffffffffff1673ffffffffffffffffffffffffffffffffffffffff168152602001908152602001600020546109c891906111eb565b6109d291906111eb565b6109dc91906111eb565b6109e691906111ba565b905080915050919050565b60005481565b60025481565b6000600162015180600660008573ffffffffffffffffffffffffffffffffffffffff1673ffffffffffffffffffffffffffffffffffffffff1681526020019081526020016000205442610a509190611245565b610a5a91906111ba565b610a649190611164565b9050919050565b3373ffffffffffffffffffffffffffffffffffffffff16600460009054906101000a900473ffffffffffffffffffffffffffffffffffffffff1673ffffffffffffffffffffffffffffffffffffffff1614610afb576040517f08c379a0000000000000000000000000000000000000000000000000000000008152600401610af29061110d565b60405180910390fd5b60005b600580549050811015610df35760006007600060058481548110610b4b577f4e487b7100000000000000000000000000000000000000000000000000000000600052603260045260246000fd5b9060005260206000200160009054906101000a900473ffffffffffffffffffffffffffffffffffffffff1673ffffffffffffffffffffffffffffffffffffffff1673ffffffffffffffffffffffffffffffffffffffff168152602001908152602001600020541115610de057600b60009054906101000a900473ffffffffffffffffffffffffffffffffffffffff1673ffffffffffffffffffffffffffffffffffffffff1663a9059cbb60058381548110610c2f577f4e487b7100000000000000000000000000000000000000000000000000000000600052603260045260246000fd5b9060005260206000200160009054906101000a900473ffffffffffffffffffffffffffffffffffffffff16610cc760058581548110610c97577f4e487b7100000000000000000000000000000000000000000000000000000000600052603260045260246000fd5b9060005260206000200160009054906101000a900473ffffffffffffffffffffffffffffffffffffffff16610969565b6040518363ffffffff1660e01b8152600401610ce4929190611067565b602060405180830381600087803b158015610cfe57600080fd5b505af1158015610d12573d6000803e3d6000fd5b505050506040513d601f19601f82011682018060405250810190610d369190610e9d565b50426006600060058481548110610d76577f4e487b7100000000000000000000000000000000000000000000000000000000600052603260045260246000fd5b9060005260206000200160009054906101000a900473ffffffffffffffffffffffffffffffffffffffff1673ffffffffffffffffffffffffffffffffffffffff1673ffffffffffffffffffffffffffffffffffffffff168152602001908152602001600020819055505b8080610deb90611326565b915050610afe565b50565b60058181548110610e0657600080fd5b906000526020600020016000915054906101000a900473ffffffffffffffffffffffffffffffffffffffff1681565b600081359050610e448161140d565b92915050565b600081519050610e5981611424565b92915050565b600081359050610e6e8161143b565b92915050565b600060208284031215610e8657600080fd5b6000610e9484828501610e35565b91505092915050565b600060208284031215610eaf57600080fd5b6000610ebd84828501610e4a565b91505092915050565b600060208284031215610ed857600080fd5b6000610ee684828501610e5f565b91505092915050565b610ef881611279565b82525050565b610f078161128b565b82525050565b6000610f1882611148565b610f228185611153565b9350610f328185602086016112c1565b610f3b816113fc565b840191505092915050565b6000610f53601c83611153565b91507f416d6f756e742063616e6e6f74206265206c657373207468616e2030000000006000830152602082019050919050565b6000610f93601b83611153565b91507f7374616b696e672062616c616e63652063616e6e6f74206265203000000000006000830152602082019050919050565b6000610fd3600a83611153565b91507f6f776e6572206f6e6c79000000000000000000000000000000000000000000006000830152602082019050919050565b61100f816112b7565b82525050565b600060208201905061102a6000830184610eef565b92915050565b60006060820190506110456000830186610eef565b6110526020830185610eef565b61105f6040830184611006565b949350505050565b600060408201905061107c6000830185610eef565b6110896020830184611006565b9392505050565b60006020820190506110a56000830184610efe565b92915050565b600060208201905081810360008301526110c58184610f0d565b905092915050565b600060208201905081810360008301526110e681610f46565b9050919050565b6000602082019050818103600083015261110681610f86565b9050919050565b6000602082019050818103600083015261112681610fc6565b9050919050565b60006020820190506111426000830184611006565b92915050565b600081519050919050565b600082825260208201905092915050565b600061116f826112b7565b915061117a836112b7565b9250827fffffffffffffffffffffffffffffffffffffffffffffffffffffffffffffffff038211156111af576111ae61136f565b5b828201905092915050565b60006111c5826112b7565b91506111d0836112b7565b9250826111e0576111df61139e565b5b828204905092915050565b60006111f6826112b7565b9150611201836112b7565b9250817fffffffffffffffffffffffffffffffffffffffffffffffffffffffffffffffff048311821515161561123a5761123961136f565b5b828202905092915050565b6000611250826112b7565b915061125b836112b7565b92508282101561126e5761126d61136f565b5b828203905092915050565b600061128482611297565b9050919050565b60008115159050919050565b600073ffffffffffffffffffffffffffffffffffffffff82169050919050565b6000819050919050565b60005b838110156112df5780820151818401526020810190506112c4565b838111156112ee576000848401525b50505050565b6000600282049050600182168061130c57607f821691505b602082108114156113205761131f6113cd565b5b50919050565b6000611331826112b7565b91507fffffffffffffffffffffffffffffffffffffffffffffffffffffffffffffffff8214156113645761136361136f565b5b600182019050919050565b7f4e487b7100000000000000000000000000000000000000000000000000000000600052601160045260246000fd5b7f4e487b7100000000000000000000000000000000000000000000000000000000600052601260045260246000fd5b7f4e487b7100000000000000000000000000000000000000000000000000000000600052602260045260246000fd5b6000601f19601f8301169050919050565b61141681611279565b811461142157600080fd5b50565b61142d8161128b565b811461143857600080fd5b50565b611444816112b7565b811461144f57600080fd5b5056fea2646970667358221220fec5a0f51c87c8cbfafbec85f0a4b66362045484b1cfa4d1196d14b7f5b3eb6164736f6c63430008000033",
  "immutableReferences": {},
  "source": "//SPDX-License-Identifier: MIT\r\n\r\npragma solidity ^0.8.0;\r\n\r\nimport \"./SolidTokenOne.sol\";\r\nimport \"./RewardToken.sol\";\r\n\r\ncontract FarmOne {\r\n    uint256 public blockPerDay;\r\n    uint256 public rewardPerBlock;\r\n    uint256 public totalPool;\r\n    uint256 public totalRewardAllocated;\r\n    address public owner;\r\n\r\n    address[] public stakers;\r\n    mapping(address => uint256) public stakeDate;\r\n    mapping(address => uint256) public stakingBalance;\r\n    mapping(address => bool) public hasStaked;\r\n    mapping(address => bool) public isStaking;\r\n    SolidTokenOne solidTokenOne;\r\n    RewardToken rewardToken;\r\n\r\n    string public name = \"Farm One\";\r\n\r\n    constructor(SolidTokenOne _solidTokenOne, RewardToken _rewardToken) {\r\n        owner = msg.sender;\r\n        blockPerDay = 1;\r\n        rewardPerBlock = 50 * 10**18;\r\n        solidTokenOne = _solidTokenOne;\r\n        rewardToken = _rewardToken;\r\n    }\r\n\r\n    function stake(uint256 _amount) public {\r\n        require(_amount > 0, \"Amount cannot be less than 0\");\r\n\r\n        // transfer LP to contract for staking\r\n        solidTokenOne.transferFrom(msg.sender, address(this), _amount);\r\n\r\n        // update staking balance and total pool\r\n        stakingBalance[msg.sender] += _amount;\r\n        totalPool += _amount;\r\n\r\n        // Update staking status\r\n        if (!hasStaked[msg.sender]) {\r\n            stakers.push(msg.sender);\r\n        }\r\n        hasStaked[msg.sender] = true;\r\n        isStaking[msg.sender] = true;\r\n        stakeDate[msg.sender] = block.timestamp;\r\n    }\r\n\r\n    function unstake() public {\r\n        uint256 balance = stakingBalance[msg.sender];\r\n\r\n        // Require amount greater than 0\r\n        require(balance > 0, \"staking balance cannot be 0\");\r\n\r\n        // Transfer Mock Dai tokens to this contract for staking\r\n        solidTokenOne.transfer(msg.sender, balance);\r\n\r\n        // Adjust staking balance\r\n        stakingBalance[msg.sender] = 0;\r\n        totalPool -= balance;\r\n\r\n        // Update staking status\r\n        isStaking[msg.sender] = false;\r\n    }\r\n\r\n    modifier onlyOwner() {\r\n        require(owner == msg.sender, \"owner only\");\r\n        _;\r\n    }\r\n\r\n    function issueReward() public onlyOwner {\r\n\r\n        // Transfer reward tokens to stakers\r\n        for (uint256 i = 0; i < stakers.length; i++) {\r\n            if (stakingBalance[stakers[i]] > 0) {\r\n\r\n                //distribute reward token to stakers\r\n                rewardToken.transfer(stakers[i], calculateReward(stakers[i]));\r\n\r\n                // change stake date to reward collection timestamp\r\n                stakeDate[stakers[i]] = block.timestamp;\r\n            }\r\n        }\r\n    }\r\n\r\n    function calculateReward(address _stakerAddress)\r\n        public\r\n        view\r\n        returns (uint256)\r\n    {\r\n        uint256 reward = (stakingBalance[_stakerAddress] *\r\n            stakeDuration(_stakerAddress) *\r\n            rewardPerBlock *\r\n            blockPerDay) / totalPool;\r\n\r\n        return reward;\r\n    }\r\n\r\n    // stake duration starts with 1 so staker can farm reward on first day\r\n    function stakeDuration(address _stakerAddress)\r\n        public\r\n        view\r\n        returns (uint256)\r\n    {\r\n        return ((block.timestamp - stakeDate[_stakerAddress]) / 1 days) + 1;\r\n    }\r\n}\r\n",
  "sourcePath": "C:/Users/Kong Ing Hong/react/Farming_Dapp/src/contracts/FarmOne.sol",
  "compiler": {
    "name": "solc",
    "version": "0.8.0+commit.c7dfd78e.Emscripten.clang"
  },
  "schemaVersion": "3.2.3",
  "updatedAt": "2022-03-25T14:12:39.501Z",
  "devdoc": {
    "kind": "dev",
    "methods": {},
    "version": 1
  },
  "userdoc": {
    "kind": "user",
    "methods": {},
    "version": 1
  }
}