{
  "contractName": "FarmThree",
  "abi": [
    {
      "inputs": [
        {
          "internalType": "contract SolidTokenThree",
          "name": "_solidTokenThree",
          "type": "address"
        },
        {
          "internalType": "contract RewardToken",
          "name": "_rewardToken",
          "type": "address"
        }
      ],
      "stateMutability": "nonpayable",
      "type": "constructor"
    },
    {
      "inputs": [],
      "name": "blockPerDay",
      "outputs": [
        {
          "internalType": "uint256",
          "name": "",
          "type": "uint256"
        }
      ],
      "stateMutability": "view",
      "type": "function",
      "constant": true
    },
    {
      "inputs": [
        {
          "internalType": "address",
          "name": "",
          "type": "address"
        }
      ],
      "name": "entitledReward",
      "outputs": [
        {
          "internalType": "uint256",
          "name": "",
          "type": "uint256"
        }
      ],
      "stateMutability": "view",
      "type": "function",
      "constant": true
    },
    {
      "inputs": [
        {
          "internalType": "address",
          "name": "",
          "type": "address"
        }
      ],
      "name": "hasStaked",
      "outputs": [
        {
          "internalType": "bool",
          "name": "",
          "type": "bool"
        }
      ],
      "stateMutability": "view",
      "type": "function",
      "constant": true
    },
    {
      "inputs": [
        {
          "internalType": "address",
          "name": "",
          "type": "address"
        }
      ],
      "name": "isStaking",
      "outputs": [
        {
          "internalType": "bool",
          "name": "",
          "type": "bool"
        }
      ],
      "stateMutability": "view",
      "type": "function",
      "constant": true
    },
    {
      "inputs": [],
      "name": "name",
      "outputs": [
        {
          "internalType": "string",
          "name": "",
          "type": "string"
        }
      ],
      "stateMutability": "view",
      "type": "function",
      "constant": true
    },
    {
      "inputs": [],
      "name": "owner",
      "outputs": [
        {
          "internalType": "address",
          "name": "",
          "type": "address"
        }
      ],
      "stateMutability": "view",
      "type": "function",
      "constant": true
    },
    {
      "inputs": [],
      "name": "rewardPerBlock",
      "outputs": [
        {
          "internalType": "uint256",
          "name": "",
          "type": "uint256"
        }
      ],
      "stateMutability": "view",
      "type": "function",
      "constant": true
    },
    {
      "inputs": [
        {
          "internalType": "address",
          "name": "",
          "type": "address"
        }
      ],
      "name": "stakeDate",
      "outputs": [
        {
          "internalType": "uint256",
          "name": "",
          "type": "uint256"
        }
      ],
      "stateMutability": "view",
      "type": "function",
      "constant": true
    },
    {
      "inputs": [
        {
          "internalType": "uint256",
          "name": "",
          "type": "uint256"
        }
      ],
      "name": "stakers",
      "outputs": [
        {
          "internalType": "address",
          "name": "",
          "type": "address"
        }
      ],
      "stateMutability": "view",
      "type": "function",
      "constant": true
    },
    {
      "inputs": [
        {
          "internalType": "address",
          "name": "",
          "type": "address"
        }
      ],
      "name": "stakingBalance",
      "outputs": [
        {
          "internalType": "uint256",
          "name": "",
          "type": "uint256"
        }
      ],
      "stateMutability": "view",
      "type": "function",
      "constant": true
    },
    {
      "inputs": [],
      "name": "totalPool",
      "outputs": [
        {
          "internalType": "uint256",
          "name": "",
          "type": "uint256"
        }
      ],
      "stateMutability": "view",
      "type": "function",
      "constant": true
    },
    {
      "inputs": [],
      "name": "totalRewardAllocated",
      "outputs": [
        {
          "internalType": "uint256",
          "name": "",
          "type": "uint256"
        }
      ],
      "stateMutability": "view",
      "type": "function",
      "constant": true
    },
    {
      "inputs": [
        {
          "internalType": "uint256",
          "name": "_amount",
          "type": "uint256"
        }
      ],
      "name": "stake",
      "outputs": [],
      "stateMutability": "nonpayable",
      "type": "function"
    },
    {
      "inputs": [],
      "name": "unstake",
      "outputs": [],
      "stateMutability": "nonpayable",
      "type": "function"
    },
    {
      "inputs": [],
      "name": "issueReward",
      "outputs": [],
      "stateMutability": "nonpayable",
      "type": "function"
    },
    {
      "inputs": [
        {
          "internalType": "address",
          "name": "_stakerAddress",
          "type": "address"
        }
      ],
      "name": "calculateReward",
      "outputs": [
        {
          "internalType": "uint256",
          "name": "",
          "type": "uint256"
        }
      ],
      "stateMutability": "view",
      "type": "function",
      "constant": true
    },
    {
      "inputs": [
        {
          "internalType": "address",
          "name": "_stakerAddress",
          "type": "address"
        }
      ],
      "name": "stakeDuration",
      "outputs": [
        {
          "internalType": "uint256",
          "name": "",
          "type": "uint256"
        }
      ],
      "stateMutability": "view",
      "type": "function",
      "constant": true
    }
  ],
  "bytecode": "0x60806040526040518060400160405280600a81526020017f4661726d20546872656500000000000000000000000000000000000000000000815250600d90805190602001906200005192919062000168565b503480156200005f57600080fd5b506040516200186738038062001867833981810160405281019062000085919062000246565b33600460006101000a81548173ffffffffffffffffffffffffffffffffffffffff021916908373ffffffffffffffffffffffffffffffffffffffff16021790555060016000819055506801158e460913d0000060018190555081600b60006101000a81548173ffffffffffffffffffffffffffffffffffffffff021916908373ffffffffffffffffffffffffffffffffffffffff16021790555080600c60006101000a81548173ffffffffffffffffffffffffffffffffffffffff021916908373ffffffffffffffffffffffffffffffffffffffff16021790555050506200037c565b8280546200017690620002e3565b90600052602060002090601f0160209004810192826200019a5760008555620001e6565b82601f10620001b557805160ff1916838001178555620001e6565b82800160010185558215620001e6579182015b82811115620001e5578251825591602001919060010190620001c8565b5b509050620001f59190620001f9565b5090565b5b8082111562000214576000816000905550600101620001fa565b5090565b600081519050620002298162000348565b92915050565b600081519050620002408162000362565b92915050565b600080604083850312156200025a57600080fd5b60006200026a858286016200022f565b92505060206200027d8582860162000218565b9150509250929050565b60006200029482620002c3565b9050919050565b6000620002a88262000287565b9050919050565b6000620002bc8262000287565b9050919050565b600073ffffffffffffffffffffffffffffffffffffffff82169050919050565b60006002820490506001821680620002fc57607f821691505b6020821081141562000313576200031262000319565b5b50919050565b7f4e487b7100000000000000000000000000000000000000000000000000000000600052602260045260246000fd5b62000353816200029b565b81146200035f57600080fd5b50565b6200036d81620002af565b81146200037957600080fd5b50565b6114db806200038c6000396000f3fe608060405234801561001057600080fd5b506004361061010b5760003560e01c8063a694fc3a116100a2578063e49352fe11610071578063e49352fe146102ce578063ecfb49a3146102ec578063f17125dd1461030a578063f483f33b1461033a578063fd5e6dd1146103445761010b565b8063a694fc3a14610222578063b1db6a3a1461023e578063c93c8f341461026e578063d82e39621461029e5761010b565b80635190bbaf116100de5780635190bbaf146101865780636f49712b146101b65780638ae39cac146101e65780638da5cb5b146102045761010b565b806306fdde03146101105780632def66201461012e57806345a3669a1461013857806345bc78ab14610156575b600080fd5b610118610374565b60405161012591906110fe565b60405180910390f35b610136610402565b005b6101406105f2565b60405161014d9190611180565b60405180910390f35b610170600480360381019061016b9190610ec7565b6105f8565b60405161017d9190611180565b60405180910390f35b6101a0600480360381019061019b9190610ec7565b610610565b6040516101ad9190611180565b60405180910390f35b6101d060048036038101906101cb9190610ec7565b610628565b6040516101dd91906110e3565b60405180910390f35b6101ee610648565b6040516101fb9190611180565b60405180910390f35b61020c61064e565b6040516102199190611068565b60405180910390f35b61023c60048036038101906102379190610f19565b610674565b005b61025860048036038101906102539190610ec7565b610984565b6040516102659190611180565b60405180910390f35b61028860048036038101906102839190610ec7565b61099c565b60405161029591906110e3565b60405180910390f35b6102b860048036038101906102b39190610ec7565b6109bc565b6040516102c59190611180565b60405180910390f35b6102d6610a44565b6040516102e39190611180565b60405180910390f35b6102f4610a4a565b6040516103019190611180565b60405180910390f35b610324600480360381019061031f9190610ec7565b610a50565b6040516103319190611180565b60405180910390f35b610342610abe565b005b61035e60048036038101906103599190610f19565b610e49565b60405161036b9190611068565b60405180910390f35b600d805461038190611347565b80601f01602080910402602001604051908101604052809291908181526020018280546103ad90611347565b80156103fa5780601f106103cf576101008083540402835291602001916103fa565b820191906000526020600020905b8154815290600101906020018083116103dd57829003601f168201915b505050505081565b6000600760003373ffffffffffffffffffffffffffffffffffffffff1673ffffffffffffffffffffffffffffffffffffffff16815260200190815260200160002054905060008111610489576040517f08c379a000000000000000000000000000000000000000000000000000000000815260040161048090611140565b60405180910390fd5b600b60009054906101000a900473ffffffffffffffffffffffffffffffffffffffff1673ffffffffffffffffffffffffffffffffffffffff1663a9059cbb33836040518363ffffffff1660e01b81526004016104e69291906110ba565b602060405180830381600087803b15801561050057600080fd5b505af1158015610514573d6000803e3d6000fd5b505050506040513d601f19601f820116820180604052508101906105389190610ef0565b506000600760003373ffffffffffffffffffffffffffffffffffffffff1673ffffffffffffffffffffffffffffffffffffffff1681526020019081526020016000208190555080600260008282546105909190611298565b925050819055506000600960003373ffffffffffffffffffffffffffffffffffffffff1673ffffffffffffffffffffffffffffffffffffffff16815260200190815260200160002060006101000a81548160ff02191690831515021790555050565b60035481565b60076020528060005260406000206000915090505481565b60066020528060005260406000206000915090505481565b60096020528060005260406000206000915054906101000a900460ff1681565b60015481565b600460009054906101000a900473ffffffffffffffffffffffffffffffffffffffff1681565b600081116106b7576040517f08c379a00000000000000000000000000000000000000000000000000000000081526004016106ae90611120565b60405180910390fd5b600b60009054906101000a900473ffffffffffffffffffffffffffffffffffffffff1673ffffffffffffffffffffffffffffffffffffffff166323b872dd3330846040518463ffffffff1660e01b815260040161071693929190611083565b602060405180830381600087803b15801561073057600080fd5b505af1158015610744573d6000803e3d6000fd5b505050506040513d601f19601f820116820180604052508101906107689190610ef0565b5080600760003373ffffffffffffffffffffffffffffffffffffffff1673ffffffffffffffffffffffffffffffffffffffff16815260200190815260200160002060008282546107b891906111b7565b9250508190555080600260008282546107d191906111b7565b92505081905550600860003373ffffffffffffffffffffffffffffffffffffffff1673ffffffffffffffffffffffffffffffffffffffff16815260200190815260200160002060009054906101000a900460ff1661088d576005339080600181540180825580915050600190039060005260206000200160009091909190916101000a81548173ffffffffffffffffffffffffffffffffffffffff021916908373ffffffffffffffffffffffffffffffffffffffff1602179055505b6001600860003373ffffffffffffffffffffffffffffffffffffffff1673ffffffffffffffffffffffffffffffffffffffff16815260200190815260200160002060006101000a81548160ff0219169083151502179055506001600960003373ffffffffffffffffffffffffffffffffffffffff1673ffffffffffffffffffffffffffffffffffffffff16815260200190815260200160002060006101000a81548160ff02191690831515021790555042600660003373ffffffffffffffffffffffffffffffffffffffff1673ffffffffffffffffffffffffffffffffffffffff1681526020019081526020016000208190555050565b600a6020528060005260406000206000915090505481565b60086020528060005260406000206000915054906101000a900460ff1681565b6000806002546000546001546109d186610a50565b600760008873ffffffffffffffffffffffffffffffffffffffff1673ffffffffffffffffffffffffffffffffffffffff16815260200190815260200160002054610a1b919061123e565b610a25919061123e565b610a2f919061123e565b610a39919061120d565b905080915050919050565b60005481565b60025481565b6000600162015180600660008573ffffffffffffffffffffffffffffffffffffffff1673ffffffffffffffffffffffffffffffffffffffff1681526020019081526020016000205442610aa39190611298565b610aad919061120d565b610ab791906111b7565b9050919050565b3373ffffffffffffffffffffffffffffffffffffffff16600460009054906101000a900473ffffffffffffffffffffffffffffffffffffffff1673ffffffffffffffffffffffffffffffffffffffff1614610b4e576040517f08c379a0000000000000000000000000000000000000000000000000000000008152600401610b4590611160565b60405180910390fd5b60005b600580549050811015610e465760006007600060058481548110610b9e577f4e487b7100000000000000000000000000000000000000000000000000000000600052603260045260246000fd5b9060005260206000200160009054906101000a900473ffffffffffffffffffffffffffffffffffffffff1673ffffffffffffffffffffffffffffffffffffffff1673ffffffffffffffffffffffffffffffffffffffff168152602001908152602001600020541115610e3357600c60009054906101000a900473ffffffffffffffffffffffffffffffffffffffff1673ffffffffffffffffffffffffffffffffffffffff1663a9059cbb60058381548110610c82577f4e487b7100000000000000000000000000000000000000000000000000000000600052603260045260246000fd5b9060005260206000200160009054906101000a900473ffffffffffffffffffffffffffffffffffffffff16610d1a60058581548110610cea577f4e487b7100000000000000000000000000000000000000000000000000000000600052603260045260246000fd5b9060005260206000200160009054906101000a900473ffffffffffffffffffffffffffffffffffffffff166109bc565b6040518363ffffffff1660e01b8152600401610d379291906110ba565b602060405180830381600087803b158015610d5157600080fd5b505af1158015610d65573d6000803e3d6000fd5b505050506040513d601f19601f82011682018060405250810190610d899190610ef0565b50426006600060058481548110610dc9577f4e487b7100000000000000000000000000000000000000000000000000000000600052603260045260246000fd5b9060005260206000200160009054906101000a900473ffffffffffffffffffffffffffffffffffffffff1673ffffffffffffffffffffffffffffffffffffffff1673ffffffffffffffffffffffffffffffffffffffff168152602001908152602001600020819055505b8080610e3e90611379565b915050610b51565b50565b60058181548110610e5957600080fd5b906000526020600020016000915054906101000a900473ffffffffffffffffffffffffffffffffffffffff1681565b600081359050610e9781611460565b92915050565b600081519050610eac81611477565b92915050565b600081359050610ec18161148e565b92915050565b600060208284031215610ed957600080fd5b6000610ee784828501610e88565b91505092915050565b600060208284031215610f0257600080fd5b6000610f1084828501610e9d565b91505092915050565b600060208284031215610f2b57600080fd5b6000610f3984828501610eb2565b91505092915050565b610f4b816112cc565b82525050565b610f5a816112de565b82525050565b6000610f6b8261119b565b610f7581856111a6565b9350610f85818560208601611314565b610f8e8161144f565b840191505092915050565b6000610fa6601c836111a6565b91507f416d6f756e742063616e6e6f74206265206c657373207468616e2030000000006000830152602082019050919050565b6000610fe6601b836111a6565b91507f7374616b696e672062616c616e63652063616e6e6f74206265203000000000006000830152602082019050919050565b6000611026600a836111a6565b91507f6f776e6572206f6e6c79000000000000000000000000000000000000000000006000830152602082019050919050565b6110628161130a565b82525050565b600060208201905061107d6000830184610f42565b92915050565b60006060820190506110986000830186610f42565b6110a56020830185610f42565b6110b26040830184611059565b949350505050565b60006040820190506110cf6000830185610f42565b6110dc6020830184611059565b9392505050565b60006020820190506110f86000830184610f51565b92915050565b600060208201905081810360008301526111188184610f60565b905092915050565b6000602082019050818103600083015261113981610f99565b9050919050565b6000602082019050818103600083015261115981610fd9565b9050919050565b6000602082019050818103600083015261117981611019565b9050919050565b60006020820190506111956000830184611059565b92915050565b600081519050919050565b600082825260208201905092915050565b60006111c28261130a565b91506111cd8361130a565b9250827fffffffffffffffffffffffffffffffffffffffffffffffffffffffffffffffff03821115611202576112016113c2565b5b828201905092915050565b60006112188261130a565b91506112238361130a565b925082611233576112326113f1565b5b828204905092915050565b60006112498261130a565b91506112548361130a565b9250817fffffffffffffffffffffffffffffffffffffffffffffffffffffffffffffffff048311821515161561128d5761128c6113c2565b5b828202905092915050565b60006112a38261130a565b91506112ae8361130a565b9250828210156112c1576112c06113c2565b5b828203905092915050565b60006112d7826112ea565b9050919050565b60008115159050919050565b600073ffffffffffffffffffffffffffffffffffffffff82169050919050565b6000819050919050565b60005b83811015611332578082015181840152602081019050611317565b83811115611341576000848401525b50505050565b6000600282049050600182168061135f57607f821691505b6020821081141561137357611372611420565b5b50919050565b60006113848261130a565b91507fffffffffffffffffffffffffffffffffffffffffffffffffffffffffffffffff8214156113b7576113b66113c2565b5b600182019050919050565b7f4e487b7100000000000000000000000000000000000000000000000000000000600052601160045260246000fd5b7f4e487b7100000000000000000000000000000000000000000000000000000000600052601260045260246000fd5b7f4e487b7100000000000000000000000000000000000000000000000000000000600052602260045260246000fd5b6000601f19601f8301169050919050565b611469816112cc565b811461147457600080fd5b50565b611480816112de565b811461148b57600080fd5b50565b6114978161130a565b81146114a257600080fd5b5056fea264697066735822122077a4c195ad859238f63c61a327a189277d032b3b126718374ba476f4fc534e7764736f6c63430008000033",
  "immutableReferences": {},
  "source": "//SPDX-License-Identifier: MIT\r\n\r\npragma solidity ^0.8.0;\r\n\r\nimport \"./SolidTokenThree.sol\";\r\nimport \"./RewardToken.sol\";\r\n\r\ncontract FarmThree {\r\n    uint256 public blockPerDay;\r\n    uint256 public rewardPerBlock;\r\n    uint256 public totalPool;\r\n    uint256 public totalRewardAllocated;\r\n    address public owner;\r\n\r\n    address[] public stakers;\r\n    mapping(address => uint256) public stakeDate;\r\n    mapping(address => uint256) public stakingBalance;\r\n    mapping(address => bool) public hasStaked;\r\n    mapping(address => bool) public isStaking;\r\n    mapping(address => uint256) public entitledReward;\r\n    SolidTokenThree solidTokenThree;\r\n    RewardToken rewardToken;\r\n\r\n    string public name = \"Farm Three\";\r\n\r\n    constructor(SolidTokenThree _solidTokenThree, RewardToken _rewardToken) {\r\n        owner = msg.sender;\r\n        blockPerDay = 1;\r\n        rewardPerBlock = 20 * 10**18;\r\n        solidTokenThree = _solidTokenThree;\r\n        rewardToken = _rewardToken;\r\n    }\r\n\r\n    function stake(uint256 _amount) public {\r\n        require(_amount > 0, \"Amount cannot be less than 0\");\r\n\r\n        // transfer LP to contract for staking\r\n        solidTokenThree.transferFrom(msg.sender, address(this), _amount);\r\n\r\n        // update staking balance and total pool\r\n        stakingBalance[msg.sender] += _amount;\r\n        totalPool += _amount;\r\n\r\n        // Update staking status\r\n        if (!hasStaked[msg.sender]) {\r\n            stakers.push(msg.sender);\r\n        }\r\n        hasStaked[msg.sender] = true;\r\n        isStaking[msg.sender] = true;\r\n        stakeDate[msg.sender] = block.timestamp;\r\n    }\r\n\r\n    function unstake() public {\r\n        uint256 balance = stakingBalance[msg.sender];\r\n\r\n        // Require amount greater than 0\r\n        require(balance > 0, \"staking balance cannot be 0\");\r\n\r\n        // Transfer Mock Dai tokens to this contract for staking\r\n        solidTokenThree.transfer(msg.sender, balance);\r\n\r\n        // Adjust staking balance\r\n        stakingBalance[msg.sender] = 0;\r\n        totalPool -= balance;\r\n\r\n        // Update staking status\r\n        isStaking[msg.sender] = false;\r\n    }\r\n\r\n    modifier onlyOwner() {\r\n        require(owner == msg.sender, \"owner only\");\r\n        _;\r\n    }\r\n\r\n    function issueReward() public onlyOwner {\r\n        // Transfer reward tokens to stakers\r\n        for (uint256 i = 0; i < stakers.length; i++) {\r\n            if (stakingBalance[stakers[i]] > 0) {\r\n                //distribute reward token to stakers\r\n                rewardToken.transfer(stakers[i], calculateReward(stakers[i]));\r\n\r\n                // change stake date to reward collection timestamp\r\n                stakeDate[stakers[i]] = block.timestamp;\r\n            }\r\n        }\r\n    }\r\n\r\n    function calculateReward(address _stakerAddress)\r\n        public\r\n        view\r\n        returns (uint256)\r\n    {\r\n        uint256 reward = (stakingBalance[_stakerAddress] *\r\n            stakeDuration(_stakerAddress) *\r\n            rewardPerBlock *\r\n            blockPerDay) / totalPool;\r\n\r\n        return reward;\r\n    }\r\n\r\n    // stake duration starts with 1 so staker can farm reward on first day\r\n    function stakeDuration(address _stakerAddress)\r\n        public\r\n        view\r\n        returns (uint256)\r\n    {\r\n        return ((block.timestamp - stakeDate[_stakerAddress]) / 1 days) + 1;\r\n    }\r\n}\r\n",
  "sourcePath": "C:/Users/Kong Ing Hong/react/Farming_Dapp/src/contracts/FarmThree.sol",
  "compiler": {
    "name": "solc",
    "version": "0.8.0+commit.c7dfd78e.Emscripten.clang"
  },
  "schemaVersion": "3.2.3",
  "updatedAt": "2022-03-25T13:45:43.234Z",
  "networkType": "ethereum",
  "devdoc": {
    "kind": "dev",
    "methods": {},
    "version": 1
  },
  "userdoc": {
    "kind": "user",
    "methods": {},
    "version": 1
  }
}